{
  "_format": "hh-sol-artifact-1",
  "contractName": "CarbonCapture",
  "sourceName": "contracts/CarbonCapture.sol",
  "abi": [
    {
      "inputs": [],
      "stateMutability": "nonpayable",
      "type": "constructor"
    },
    {
      "anonymous": false,
      "inputs": [
        {
          "indexed": true,
          "internalType": "address",
          "name": "industryAddress",
          "type": "address"
        },
        {
          "indexed": false,
          "internalType": "uint256",
          "name": "year",
          "type": "uint256"
        },
        {
          "indexed": false,
          "internalType": "uint256",
          "name": "month",
          "type": "uint256"
        },
        {
          "indexed": false,
          "internalType": "uint256",
          "name": "amount",
          "type": "uint256"
        }
      ],
      "name": "CarbonCaptured",
      "type": "event"
    },
    {
      "anonymous": false,
      "inputs": [
        {
          "indexed": true,
          "internalType": "address",
          "name": "industryAddress",
          "type": "address"
        },
        {
          "indexed": false,
          "internalType": "uint256",
          "name": "year",
          "type": "uint256"
        },
        {
          "indexed": false,
          "internalType": "uint256",
          "name": "month",
          "type": "uint256"
        }
      ],
      "name": "CarbonVerified",
      "type": "event"
    },
    {
      "anonymous": false,
      "inputs": [
        {
          "indexed": true,
          "internalType": "address",
          "name": "industryAddress",
          "type": "address"
        },
        {
          "indexed": false,
          "internalType": "uint256",
          "name": "industryId",
          "type": "uint256"
        },
        {
          "indexed": false,
          "internalType": "string",
          "name": "name",
          "type": "string"
        }
      ],
      "name": "IndustryRegistered",
      "type": "event"
    },
    {
      "inputs": [
        {
          "internalType": "uint256",
          "name": "_year",
          "type": "uint256"
        },
        {
          "internalType": "uint256",
          "name": "_month",
          "type": "uint256"
        },
        {
          "internalType": "uint256",
          "name": "_amount",
          "type": "uint256"
        }
      ],
      "name": "captureCarbon",
      "outputs": [],
      "stateMutability": "nonpayable",
      "type": "function"
    },
    {
      "inputs": [
        {
          "internalType": "address",
          "name": "_industryAddress",
          "type": "address"
        },
        {
          "internalType": "uint256",
          "name": "_year",
          "type": "uint256"
        },
        {
          "internalType": "uint256",
          "name": "_month",
          "type": "uint256"
        }
      ],
      "name": "getCarbonCaptured",
      "outputs": [
        {
          "internalType": "uint256",
          "name": "",
          "type": "uint256"
        }
      ],
      "stateMutability": "view",
      "type": "function"
    },
    {
      "inputs": [
        {
          "internalType": "uint256",
          "name": "start",
          "type": "uint256"
        },
        {
          "internalType": "uint256",
          "name": "limit",
          "type": "uint256"
        }
      ],
      "name": "getIndustriesByLimit",
      "outputs": [
        {
          "internalType": "address[]",
          "name": "",
          "type": "address[]"
        },
        {
          "internalType": "string[]",
          "name": "",
          "type": "string[]"
        },
        {
          "internalType": "uint256[]",
          "name": "",
          "type": "uint256[]"
        },
        {
          "internalType": "string[]",
          "name": "",
          "type": "string[]"
        },
        {
          "internalType": "string[]",
          "name": "",
          "type": "string[]"
        },
        {
          "internalType": "uint256[]",
          "name": "",
          "type": "uint256[]"
        }
      ],
      "stateMutability": "view",
      "type": "function"
    },
    {
      "inputs": [
        {
          "internalType": "uint256",
          "name": "_industryId",
          "type": "uint256"
        }
      ],
      "name": "getIndustryById",
      "outputs": [
        {
          "internalType": "address",
          "name": "",
          "type": "address"
        },
        {
          "internalType": "string",
          "name": "",
          "type": "string"
        },
        {
          "internalType": "uint256",
          "name": "",
          "type": "uint256"
        },
        {
          "internalType": "string",
          "name": "",
          "type": "string"
        },
        {
          "internalType": "string",
          "name": "",
          "type": "string"
        },
        {
          "internalType": "bool",
          "name": "",
          "type": "bool"
        }
      ],
      "stateMutability": "view",
      "type": "function"
    },
    {
      "inputs": [
        {
          "internalType": "address",
          "name": "_industryAddress",
          "type": "address"
        }
      ],
      "name": "getIndustryDetails",
      "outputs": [
        {
          "internalType": "uint256",
          "name": "",
          "type": "uint256"
        },
        {
          "internalType": "string",
          "name": "",
          "type": "string"
        },
        {
          "internalType": "uint256",
          "name": "",
          "type": "uint256"
        },
        {
          "internalType": "string",
          "name": "",
          "type": "string"
        },
        {
          "internalType": "string",
          "name": "",
          "type": "string"
        },
        {
          "internalType": "bool",
          "name": "",
          "type": "bool"
        }
      ],
      "stateMutability": "view",
      "type": "function"
    },
    {
      "inputs": [
        {
          "internalType": "address",
          "name": "_industryAddress",
          "type": "address"
        }
      ],
      "name": "getTotalCarbonCaptured",
      "outputs": [
        {
          "internalType": "uint256",
          "name": "",
          "type": "uint256"
        }
      ],
      "stateMutability": "view",
      "type": "function"
    },
    {
      "inputs": [],
      "name": "getTotalCarbonCapturedAllIndustries",
      "outputs": [
        {
          "internalType": "uint256",
          "name": "",
          "type": "uint256"
        }
      ],
      "stateMutability": "view",
      "type": "function"
    },
    {
      "inputs": [
        {
          "internalType": "uint256",
          "name": "_year",
          "type": "uint256"
        }
      ],
      "name": "getTotalCarbonCapturedByYear",
      "outputs": [
        {
          "internalType": "uint256",
          "name": "",
          "type": "uint256"
        }
      ],
      "stateMutability": "view",
      "type": "function"
    },
    {
      "inputs": [
        {
          "internalType": "address",
          "name": "_industryAddress",
          "type": "address"
        }
      ],
      "name": "listCapturedCarbonByIndustry",
      "outputs": [
        {
          "components": [
            {
              "internalType": "uint256",
              "name": "year",
              "type": "uint256"
            },
            {
              "internalType": "uint256",
              "name": "month",
              "type": "uint256"
            },
            {
              "internalType": "uint256",
              "name": "carbonCaptured",
              "type": "uint256"
            },
            {
              "internalType": "bool",
              "name": "verified",
              "type": "bool"
            }
          ],
          "internalType": "struct CarbonCapture.CarbonData[]",
          "name": "",
          "type": "tuple[]"
        }
      ],
      "stateMutability": "view",
      "type": "function"
    },
    {
      "inputs": [],
      "name": "nextIndustryId",
      "outputs": [
        {
          "internalType": "uint256",
          "name": "",
          "type": "uint256"
        }
      ],
      "stateMutability": "view",
      "type": "function"
    },
    {
      "inputs": [],
      "name": "owner",
      "outputs": [
        {
          "internalType": "address",
          "name": "",
          "type": "address"
        }
      ],
      "stateMutability": "view",
      "type": "function"
    },
    {
      "inputs": [
        {
          "internalType": "address",
          "name": "_industryAddress",
          "type": "address"
        },
        {
          "internalType": "string",
          "name": "_name",
          "type": "string"
        },
        {
          "internalType": "uint256",
          "name": "_city",
          "type": "uint256"
        },
        {
          "internalType": "string",
          "name": "_latitude",
          "type": "string"
        },
        {
          "internalType": "string",
          "name": "_longitude",
          "type": "string"
        }
      ],
      "name": "registerIndustry",
      "outputs": [],
      "stateMutability": "nonpayable",
      "type": "function"
    },
    {
      "inputs": [
        {
          "internalType": "address",
          "name": "newOwner",
          "type": "address"
        }
      ],
      "name": "transferOwnership",
      "outputs": [],
      "stateMutability": "nonpayable",
      "type": "function"
    },
    {
      "inputs": [
        {
          "internalType": "address",
          "name": "_industryAddress",
          "type": "address"
        },
        {
          "internalType": "uint256",
          "name": "_year",
          "type": "uint256"
        },
        {
          "internalType": "uint256",
          "name": "_month",
          "type": "uint256"
        }
      ],
      "name": "verifyCarbon",
      "outputs": [],
      "stateMutability": "nonpayable",
      "type": "function"
    }
  ],
  "bytecode": "0x608060405234801561001057600080fd5b50600080546001600160a01b031916331790556001600355611d0a806100376000396000f3fe608060405234801561001057600080fd5b50600436106100ea5760003560e01c8063670c41211161008c578063a993f48f11610066578063a993f48f146101fb578063d9e1c10e1461021b578063f2fde38b1461022e578063f834cc521461024157600080fd5b8063670c4121146101985780638da5cb5b146101ab5780639b157bb2146101d657600080fd5b806330bcd6c4116100c857806330bcd6c4146101425780633f3e58311461015757806361987f9b1461016a578063638699741461018f57600080fd5b8063020cdc75146100ef57806302a9d0f01461010a5780632742f3051461012f575b600080fd5b6100f7610254565b6040519081526020015b60405180910390f35b61011d61011836600461159b565b610317565b604051610101969594939291906115fa565b6100f761013d36600461159b565b61058c565b61015561015036600461171f565b610618565b005b6100f76101653660046117c2565b6107c6565b61017d6101783660046117e4565b6108d1565b6040516101019695949392919061189c565b6100f760035481565b6101556101a6366004611951565b610e31565b6000546101be906001600160a01b031681565b6040516001600160a01b039091168152602001610101565b6101e96101e43660046117c2565b610f70565b60405161010196959493929190611984565b61020e6102093660046117c2565b611003565b604051610101919061199d565b6100f7610229366004611951565b6112ba565b61015561023c3660046117c2565b61135e565b61015561024f366004611a03565b611400565b60008060015b600354811015610311576000818152600260209081526040808320546001600160a01b031680845260019092529091206107e75b61029c6301e1853e42611a45565b6102a8906107b2611a67565b81116103065760015b600c81116102f357600082815260068401602090815260408083208484529091529020546102df9087611a67565b9550806102eb81611a80565b9150506102b1565b50806102fe81611a80565b91505061028e565b50505060010161025a565b50919050565b60008181526002602052604081205460609082908290819083906001600160a01b0316806103845760405162461bcd60e51b8152602060048201526015602482015274125b991d5cdd1c9e481251081b9bdd08199bdd5b99605a1b60448201526064015b60405180910390fd5b600060016000836001600160a01b03166001600160a01b0316815260200190815260200160002090508181600101826002015483600301846004018560050160009054906101000a900460ff168480546103dd90611a99565b80601f016020809104026020016040519081016040528092919081815260200182805461040990611a99565b80156104565780601f1061042b57610100808354040283529160200191610456565b820191906000526020600020905b81548152906001019060200180831161043957829003601f168201915b5050505050945082805461046990611a99565b80601f016020809104026020016040519081016040528092919081815260200182805461049590611a99565b80156104e25780601f106104b7576101008083540402835291602001916104e2565b820191906000526020600020905b8154815290600101906020018083116104c557829003601f168201915b505050505092508180546104f590611a99565b80601f016020809104026020016040519081016040528092919081815260200182805461052190611a99565b801561056e5780601f106105435761010080835404028352916020019161056e565b820191906000526020600020905b81548152906001019060200180831161055157829003601f168201915b50505050509150975097509750975097509750505091939550919395565b60008060015b600354811015610611576000818152600260209081526040808320546001600160a01b03168084526001928390529220905b600c811161060657600087815260068301602090815260408083208484529091529020546105f29086611a67565b9450806105fe81611a80565b9150506105c4565b505050600101610592565b5092915050565b6000546001600160a01b031633146106425760405162461bcd60e51b815260040161037b90611acd565b6001600160a01b03851660009081526001602052604090206005015460ff16156106ae5760405162461bcd60e51b815260206004820152601b60248201527f496e64757374727920616c726561647920726567697374657265640000000000604482015260640161037b565b6003546001600160a01b0386166000908152600160208190526040909120918255016106da8582611b55565b506001600160a01b038516600090815260016020819052604090912060058101805460ff19169092179091556002810184905560030161071a8382611b55565b506001600160a01b03851660009081526001602052604090206004016107408282611b55565b50600380546000908152600260205260409081902080546001600160a01b0319166001600160a01b038916908117909155915490517fce55146b730f1414bf473378d7473119a340966c4632e9fb519c2bea82d8e36f916107a2918890611c15565b60405180910390a2600380549060006107ba83611a80565b91905055505050505050565b6001600160a01b038116600090815260016020526040812060050154829060ff166108035760405162461bcd60e51b815260040161037b90611c36565b60006107e75b6108176301e1853e42611a45565b610823906107b2611a67565b81116108c95760015b600c81116108b6576001600160a01b03861660009081526001602090815260408083208584526006018252808320848452909152902054156108a4576001600160a01b038616600090815260016020908152604080832085845260060182528083208484529091529020546108a19084611a67565b92505b806108ae81611a80565b91505061082c565b50806108c181611a80565b915050610809565b509392505050565b606080606080606080600060016003546108eb9190611c6d565b90506000891180156108fd5750808911155b61093f5760405162461bcd60e51b8152602060048201526013602482015272092dcecc2d8d2c840e6e8c2e4e840d2dcc8caf606b1b604482015260640161037b565b6000600161094d8a8c611a67565b6109579190611c6d565b9050818111156109645750805b60006109708b83611c6d565b61097b906001611a67565b90508a60008267ffffffffffffffff8111156109995761099961167c565b6040519080825280602002602001820160405280156109c2578160200160208202803683370190505b50905060008367ffffffffffffffff8111156109e0576109e061167c565b604051908082528060200260200182016040528015610a1357816020015b60608152602001906001900390816109fe5790505b50905060008467ffffffffffffffff811115610a3157610a3161167c565b604051908082528060200260200182016040528015610a5a578160200160208202803683370190505b50905060008567ffffffffffffffff811115610a7857610a7861167c565b604051908082528060200260200182016040528015610aab57816020015b6060815260200190600190039081610a965790505b50905060008667ffffffffffffffff811115610ac957610ac961167c565b604051908082528060200260200182016040528015610afc57816020015b6060815260200190600190039081610ae75790505b50905060008767ffffffffffffffff811115610b1a57610b1a61167c565b604051908082528060200260200182016040528015610b43578160200160208202803683370190505b50905060005b88811015610e13576000600281610b60848c611a67565b815260208082019290925260409081016000908120546001600160a01b031680825260019093522089519192509082908a9085908110610ba257610ba2611c80565b60200260200101906001600160a01b031690816001600160a01b031681525050806001018054610bd190611a99565b80601f0160208091040260200160405190810160405280929190818152602001828054610bfd90611a99565b8015610c4a5780601f10610c1f57610100808354040283529160200191610c4a565b820191906000526020600020905b815481529060010190602001808311610c2d57829003601f168201915b5050505050888481518110610c6157610c61611c80565b60200260200101819052508060020154878481518110610c8357610c83611c80565b602002602001018181525050806003018054610c9e90611a99565b80601f0160208091040260200160405190810160405280929190818152602001828054610cca90611a99565b8015610d175780601f10610cec57610100808354040283529160200191610d17565b820191906000526020600020905b815481529060010190602001808311610cfa57829003601f168201915b5050505050868481518110610d2e57610d2e611c80565b6020026020010181905250806004018054610d4890611a99565b80601f0160208091040260200160405190810160405280929190818152602001828054610d7490611a99565b8015610dc15780601f10610d9657610100808354040283529160200191610dc1565b820191906000526020600020905b815481529060010190602001808311610da457829003601f168201915b5050505050858481518110610dd857610dd8611c80565b6020026020010181905250610dec826107c6565b848481518110610dfe57610dfe611c80565b60209081029190910101525050600101610b49565b50949e50929c50909a50985096509450505050509295509295509295565b6000546001600160a01b03163314610e5b5760405162461bcd60e51b815260040161037b90611acd565b60018110158015610e6d5750600c8111155b610e895760405162461bcd60e51b815260040161037b90611c96565b6001600160a01b03831660009081526001602090815260408083208584526006018252808320848452909152902054610ef85760405162461bcd60e51b81526020600482015260116024820152704e6f206461746120746f2076657269667960781b604482015260640161037b565b6001600160a01b038316600081815260016020818152604080842087855260060182528084208685528252928390208201805460ff191690921790915581518581529081018490527f20287ccbfa7942dbd219b497ff4ce39c8133e53811a0ea8ffa76400ba127c6b3910160405180910390a2505050565b6001600160a01b0381166000908152600160205260408120600501546060908290829081908390879060ff16610fb85760405162461bcd60e51b815260040161037b90611c36565b6001600160a01b038816600090815260016020819052604090912080546002820154600583015493830180549394929390926003860191600487019160ff169085906103dd90611a99565b6001600160a01b038116600090815260016020526040902060050154606090829060ff166110435760405162461bcd60e51b815260040161037b90611c36565b6001600160a01b0383166000908152600160205260408120906107e79061106e6301e1853e42611a45565b61107a906107b2611a67565b9050600c60008161108b8585611c6d565b611096906001611a67565b6110a09190611cbd565b67ffffffffffffffff8111156110b8576110b861167c565b60405190808252806020026020018201604052801561111657816020015b61110360405180608001604052806000815260200160008152602001600081526020016000151581525090565b8152602001906001900390816110d65790505b5090506000845b8481116111e55760015b8481116111d2576000828152600689016020908152604080832084845290915290205480156111bf57604080516080810182528481526020808201859052818301849052600086815260068d018252838120868252909152919091206001015460ff161515606082015285518690869081106111a5576111a5611c80565b602002602001018190525083806111bb90611a80565b9450505b50806111ca81611a80565b915050611127565b50806111dd81611a80565b91505061111d565b5060008167ffffffffffffffff8111156112015761120161167c565b60405190808252806020026020018201604052801561125f57816020015b61124c60405180608001604052806000815260200160008152602001600081526020016000151581525090565b81526020019060019003908161121f5790505b50905060005b828110156112ac5783818151811061127f5761127f611c80565b602002602001015182828151811061129957611299611c80565b6020908102919091010152600101611265565b509998505050505050505050565b6001600160a01b038316600090815260016020526040812060050154849060ff166112f75760405162461bcd60e51b815260040161037b90611c36565b600183101580156113095750600c8311155b6113255760405162461bcd60e51b815260040161037b90611c96565b6001600160a01b038516600090815260016020908152604080832087845260060182528083208684529091529020549150509392505050565b6000546001600160a01b031633146113885760405162461bcd60e51b815260040161037b90611acd565b6001600160a01b0381166113de5760405162461bcd60e51b815260206004820152601d60248201527f4e6577206f776e657220697320746865207a65726f2061646472657373000000604482015260640161037b565b600080546001600160a01b0319166001600160a01b0392909216919091179055565b3360008181526001602052604090206005015460ff166114325760405162461bcd60e51b815260040161037b90611c36565b600183101580156114445750600c8311155b6114605760405162461bcd60e51b815260040161037b90611c96565b3360009081526001602081815260408084208885526006018252808420878552909152909120015460ff16156114ec5760405162461bcd60e51b815260206004820152602b60248201527f436172626f6e206461746120666f722074686973206d6f6e746820616c72656160448201526a191e4818d85c1d1d5c995960aa1b606482015260840161037b565b336000908152600160209081526040808320878452600601825280832086845290915281208054849290611521908490611a67565b90915550503360008181526001602081815260408084208985526006018252808420888552825292839020909101805460ff1916905581518781529081018690529081018490527f0fca7d6f48c479689944c60f098f6902c01d56bbe478cec742cad9b6f95927c69060600160405180910390a250505050565b6000602082840312156115ad57600080fd5b5035919050565b6000815180845260005b818110156115da576020818501810151868301820152016115be565b506000602082860101526020601f19601f83011685010191505092915050565b6001600160a01b038716815260c06020820181905260009061161e908301886115b4565b866040840152828103606084015261163681876115b4565b9050828103608084015261164a81866115b4565b91505082151560a0830152979650505050505050565b80356001600160a01b038116811461167757600080fd5b919050565b634e487b7160e01b600052604160045260246000fd5b600082601f8301126116a357600080fd5b813567ffffffffffffffff808211156116be576116be61167c565b604051601f8301601f19908116603f011681019082821181831017156116e6576116e661167c565b816040528381528660208588010111156116ff57600080fd5b836020870160208301376000602085830101528094505050505092915050565b600080600080600060a0868803121561173757600080fd5b61174086611660565b9450602086013567ffffffffffffffff8082111561175d57600080fd5b61176989838a01611692565b955060408801359450606088013591508082111561178657600080fd5b61179289838a01611692565b935060808801359150808211156117a857600080fd5b506117b588828901611692565b9150509295509295909350565b6000602082840312156117d457600080fd5b6117dd82611660565b9392505050565b600080604083850312156117f757600080fd5b50508035926020909101359150565b60008282518085526020808601955060208260051b8401016020860160005b8481101561185357601f198684030189526118418383516115b4565b98840198925090830190600101611825565b5090979650505050505050565b60008151808452602080850194506020840160005b8381101561189157815187529582019590820190600101611875565b509495945050505050565b60c0808252875190820181905260009060209060e0840190828b01845b828110156118de5781516001600160a01b0316845292840192908401906001016118b9565b50505083810360208501526118f3818a611806565b91505082810360408401526119088188611860565b9050828103606084015261191c8187611806565b905082810360808401526119308186611806565b905082810360a08401526119448185611860565b9998505050505050505050565b60008060006060848603121561196657600080fd5b61196f84611660565b95602085013595506040909401359392505050565b86815260c06020820152600061161e60c08301886115b4565b602080825282518282018190526000919060409081850190868401855b828110156119f65781518051855286810151878601528581015186860152606090810151151590850152608090930192908501906001016119ba565b5091979650505050505050565b600080600060608486031215611a1857600080fd5b505081359360208301359350604090920135919050565b634e487b7160e01b600052601160045260246000fd5b600082611a6257634e487b7160e01b600052601260045260246000fd5b500490565b80820180821115611a7a57611a7a611a2f565b92915050565b600060018201611a9257611a92611a2f565b5060010190565b600181811c90821680611aad57607f821691505b60208210810361031157634e487b7160e01b600052602260045260246000fd5b60208082526017908201527f43616c6c6572206973206e6f7420746865206f776e6572000000000000000000604082015260600190565b601f821115611b50576000816000526020600020601f850160051c81016020861015611b2d5750805b601f850160051c820191505b81811015611b4c57828155600101611b39565b5050505b505050565b815167ffffffffffffffff811115611b6f57611b6f61167c565b611b8381611b7d8454611a99565b84611b04565b602080601f831160018114611bb85760008415611ba05750858301515b600019600386901b1c1916600185901b178555611b4c565b600085815260208120601f198616915b82811015611be757888601518255948401946001909101908401611bc8565b5085821015611c055787850151600019600388901b60f8161c191681555b5050505050600190811b01905550565b828152604060208201526000611c2e60408301846115b4565b949350505050565b6020808252601a908201527f496e64757374727920646f6573206e6f74207665726966696564000000000000604082015260600190565b81810381811115611a7a57611a7a611a2f565b634e487b7160e01b600052603260045260246000fd5b6020808252600d908201526c092dcecc2d8d2c840dadedce8d609b1b604082015260600190565b8082028115828204841417611a7a57611a7a611a2f56fea26469706673582212208bc3aae1c984a006d40dd50c88d77bf0b7e49bc75de07c8583a1c38d3fd95fe164736f6c63430008180033",
  "linkReferences": {},
  "deployedLinkReferences": {}
}